:0C0000000C942A000C9400000C940000EA
:10000C000C9400000C9400000C9400000C94000064
:10001C000C9400000C9400000C9400000C94000054
:10002C000C9400000C9400000C9400000C94000044
:10003C000C9400000C9400000C9400000C94000034
:10004C000C9400000C940000F894EE27ECBBF1E04B
:10005C00FBBFEBBFE5BF8DE0A2E0BB27ED938A951C
:10006C00E9F780E094E0A0E6ED930197E9F7EFE57E
:10007C00EDBFE4E0EEBFC0E6D1E00C944500E0E05B
:10008C00E5BBA09AA29AA19AE7E0E2BBE0E0E1BB53
:10009C00809910C0A89AA998AA98A1EEB0E016D0A1
:1000AC00AA9AA1EEB0E012D0809B02C0829901C046
:1000BC0001C0F2CF819903C0A898A99AAA9A8299F3
:1000CC0003C0A898A998AA98E3CFFFCF109639F04F
:1000DC00A8958AEF90E00197F1F71197C9F7089569
:00000001FF
