:080000000C942F000C94000089
:100008000C9400000C9400000C9400000C94000068
:100018000C9400000C9400000C9400000C94000058
:100028000C9400000C9400000C9400000C94000048
:100038000C9400000C9400000C9400000C94000038
:100048000C9400000C9400000C94000000000200C6
:10005800040054000000F894EE27ECBBF1E0FBBF6D
:10006800EBBFE5BF8DE0A2E0BB27ED938A95E9F7EA
:1000780080E094E0A0E6ED930197E9F7E6E5F0E08B
:1000880085919591009761F0A591B591059015908E
:10009800BF01F00105900D920197E1F7FB01F0CF48
:1000A800EFE5EDBFE4E0EEBFC0E6D1E00C945C0004
:1000B800E0E0E5BBE5E0E4BBE7E0E2BBE0E0E1BBB4
:1000C800809906C0A4E6B0E031D0F20131962F0144
:1000D800819904C00024041405040CF01BC0A89ADC
:1000E800002404140504A4F4AA9AA4EFB1E01ED0D5
:1000F800829902C013D00CC0AA98A4EFB1E016D020
:10010800829902C00BD004C0F20132972F01E8CFC8
:10011800919AA898829B02D0D3CFFFCFA4E6B0E0F3
:1001280005D0E0E0E5BB442455240895109639F045
:10013800A8958AEF90E00197F1F71197C9F708950C
:00000001FF
