:060000000C942F000C948B
:1000060000000C9400000C9400000C9400000C946A
:1000160000000C9400000C9400000C9400000C945A
:1000260000000C9400000C9400000C9400000C944A
:1000360000000C9400000C9400000C9400000C943A
:1000460000000C9400000C9400000C9400000000CA
:100056000200040054000000F894EE27ECBBF1E027
:10006600FBBFEBBFE5BF8DE0A2E0BB27ED938A9512
:10007600E9F780E094E0A0E6ED930197E9F7E6E57D
:10008600F0E085919591009761F0A591B591059065
:100096001590BF01F00105900D920197E1F7FB0164
:1000A600F0CFEFE5EDBFE4E0EEBFC0E6D1E00C94A3
:1000B6005C00E0E0E5BBE5E0E4BBE7E0E2BBE0E0F6
:1000C600E1BB809906C0ACE2B1E048D0F2013196BE
:1000D6002F01819904C00024041405040CF031C0DA
:1000E600A89A00240414050454F5AA9AA1EEB0E0D7
:1000F60035D0829904C0A4E6B0E030D020C0A1EE8D
:10010600B0E02CD0829904C0A4E6B0E027D017C096
:10011600AA98A1EEB0E022D0829904C0A4E6B0E08D
:100126001DD00DC0A1EEB0E019D0829904C0A4E69E
:10013600B0E014D004C0F20131972F01D2CF919ACA
:1001460008D0829904C0A4E6B0E008D002D0B9CFA6
:10015600FFCFE0E0E5BB442455240895109639F01E
:10016600A8958AEF90E00197F1F71197C9F70895DE
:00000001FF
