:080000000C942A000C9400008E
:100008000C9400000C9400000C9400000C94000068
:100018000C9400000C9400000C9400000C94000058
:100028000C9400000C9400000C9400000C94000048
:100038000C9400000C9400000C9400000C94000038
:100048000C9400000C9400000C940000F894EE2727
:10005800ECBBF1E0FBBFEBBFE5BF8DE0A2E0BB2747
:10006800ED938A95E9F780E094E0A0E6ED93019797
:10007800E9F7EFE5EDBFE4E0EEBFC0E6D1E00C94B0
:100088004500E4E5E5BBE1E0E4BB9A9BA89A9C99AE
:1000980011C0A89AA1EEB0E011D0A898A1EEB0E0E6
:1000A8000DD09A9902C0A89A05C09E9902C0A89836
:1000B80001C0EFCF9E9BA898E8CFFFCF109639F0EC
:1000C800A8958AEF90E00197F1F71197C9F708957D
:00000001FF
