:060000000C942F000C948B
:1000060000000C9400000C9400000C9400000C946A
:1000160000000C9400000C9400000C9400000C945A
:1000260000000C9400000C9400000C9400000C944A
:1000360000000C9400000C9400000C9400000C943A
:1000460000000C9400000C9400000C9400000000CA
:100056000200040054000000F894EE27ECBBF1E027
:10006600FBBFEBBFE5BF8DE0A2E0BB27ED938A9512
:10007600E9F780E094E0A0E6ED930197E9F7E6E57D
:10008600F0E085919591009761F0A591B591059065
:100096001590BF01F00105900D920197E1F7FB0164
:1000A600F0CFEFE5EDBFE4E0EEBFC0E6D1E00C94A3
:1000B6005C00E0E0E5BBE7E0E4BBEFE0E2BBE0E0EC
:1000C600E1BB809906C0AAEFB0E048D0F2013196B4
:1000D6002F0181990AC0AAEFB0E040D00024041491
:1000E60005041CF4F20131972F01829904C0002403
:1000F600041405040CF025C0AAEFB0E02FD0A89A8E
:10010600042C0528D1F0AA9AAAEFB0E027D0839B49
:1001160014C0AAEFB0E022D0AA98839B0EC0AAEF23
:10012600B0E01CD0839B09C0AAEFB0E017D0839B38
:1001360004C0F20131972F01E3CFE0E0E5BB442490
:100146005524839909C0AAEFB0E008D04424552469
:10015600E0E0E5BBE1E1E2BBB4CFFFCF109639F0BA
:10016600A89580ED97E00197F1F71197C9F70895E3
:00000001FF
