:0E0000000C942A000C9400000C9400000C9448
:10000E0000000C9400000C9400000C9400000C9462
:10001E0000000C9400000C9400000C9400000C9452
:10002E0000000C9400000C9400000C9400000C9442
:10003E0000000C9400000C9400000C9400000C9432
:10004E0000000C940000F894EE27ECBBF1E0FBBF2F
:10005E00EBBFE5BF8DE0A2E0BB27ED938A95E9F7F4
:10006E0080E094E0A0E6ED930197E9F7EFE5EDBFB0
:10007E00E4E0EEBFC0E6D1E00C944500E0E0E5BB65
:10008E00E3E0E4BBA89AA998A0EDB7E007D0A89842
:10009E00A99AA0EDB7E002D0F5CFFFCF109639F0B8
:1000AE00A8958AEF90E00197F1F71197C9F7089597
:00000001FF
