:020000000C945E
:100002002A000C9400000C9400000C9400000C9444
:1000120000000C9400000C9400000C9400000C945E
:1000220000000C9400000C9400000C9400000C944E
:1000320000000C9400000C9400000C9400000C943E
:1000420000000C9400000C9400000C9400000C942E
:100052000000F894EE27ECBBF1E0FBBFEBBFE5BF7D
:100062008DE0A2E0BB27ED938A95E9F780E094E06A
:10007200A0E6ED930197E9F7EFE5EDBFE4E0EEBF0F
:10008200C0E6D1E00C944500E0E0EBBBE2E0EABB65
:10009200E5BBE0E0E4BBE8BBE0E1E7BBE4E0E2BBF8
:1000A200E0E0E1BB999903C0D99AC498FBCF829949
:1000B20003C0C49AD998FBCFD998C498F3CFFFCF85
:00000001FF
