:0E0000000C942A000C9400000C9400000C9448
:10000E0000000C9400000C9400000C9400000C9462
:10001E0000000C9400000C9400000C9400000C9452
:10002E0000000C9400000C9400000C9400000C9442
:10003E0000000C9400000C9400000C9400000C9432
:10004E0000000C940000F894EE27ECBBF1E0FBBF2F
:10005E00EBBFE5BF8DE0A2E0BB27ED938A95E9F7F4
:10006E0080E094E0A0E6ED930197E9F7EFE5EDBFB0
:10007E00E4E0EEBFC0E6D1E00C944500E0E0E2BB68
:10008E00E5BBEBBBEBE0E1BBEEE0E4BBE0E8EABBDB
:10009E00DF9AA99AAA9AAB9A909A919A939AA1EEFC
:1000AE00B0E00CD0DF98A998AA98AB989098919848
:1000BE009398A1EEB0E002D0EBCFFFCF109639F0BF
:1000CE00A89584EF91E00197F1F71197C9F708957C
:00000001FF
