:080000000C9432000C94000086
:100008000C9400000C9400000C9400000C94000068
:100018000C9400000C9400000C9400000C94000058
:100028000C9400000C9400000C9400000C94000048
:100038000C9400000C9400000C9400000C94000038
:100048000C9400000C9400000C94000000000000C8
:10005800000000000800040054000000F894EE2797
:10006800ECBBF1E0FBBFEBBFE5BF8DE0A2E0BB2737
:10007800ED938A95E9F780E094E0A0E6ED93019787
:10008800E9F7ECE5F0E085919591009761F0A5918D
:10009800B59105901590BF01F00105900D9201975B
:1000A800E1F7FB01F0CFEFE5EDBFE4E0EEBFC0E61E
:1000B800D1E00C945F00E0E0E5BBEFE0E4BBE7E0F3
:1000C800E2BBE0E0E1BB809903C0CBD031962F01C1
:1000D800819908C0AAEFCAD014F0CED01CF4F3015D
:1000E80031963F01829909C000240414050424F0C4
:1000F8000024061407040CF401C0A7C0B2D0E61906
:10010800F709AE0EBF1EE5E0F0E04F01042C05280C
:1001180081F0A89AA998AB98AA9AA8EEB3E0C6D09D
:10012800AA98A898A6E9B0E0C1D0F20131972F01AA
:10013800EDCFE0E0E5BBACE2B1E0B8D0062C072893
:1001480041F09FD0A6E9B0E0B1D0F30131973F016B
:10015800F5CFE0E0E5BB00240A140B040CF072C0F4
:10016800A8ECB0E0A3D0809902C095D05BC081997B
:1001780009C0A8EC7BD014F07FD01CF4F3013196B1
:100188003F0150C0A8ECB0E091D0809902C083D064
:1001980049C0819909C0A8EC69D014F06DD01CF44D
:1001A800F30131963F013EC0A8ECB0E07FD08099C2
:1001B80002C071D037C0819909C0A8EC57D014F09B
:1001C8005BD01CF4F30131963F012CC0A8ECB0E0E1
:1001D8006DD0809902C05FD025C0819909C0A8EC74
:1001E80045D014F049D01CF4F30131963F011AC0F0
:1001F800A8ECB0E05BD0809902C04DD013C08199C3
:1002080009C0A8EC33D014F037D01CF4F3013196B0
:100218003F0108C0F40131974F0100240814090474
:100228000CF49ECF082C092861F400240A140B044E
:1002380044F427D0A4E6B0E039D0F50131975F0146
:10024800F4CFA998E5E0F0E04F01E0E0E5BBE7E096
:10025800E2BB0024A014B00414F4AA24BB2433CFB6
:10026800FFCFAAEFB0E022D0F2010895B0E01ED08F
:100278000024041405040895D501A619B70912D05D
:100288000895A898A99AAA98AB9AA8EEB3E00ED0B8
:10029800AB98A9980895A8ECB0E008D0F20131967F
:1002A8002F01089500240A160B060895109639F0B8
:1002B800A89580ED97E00197F1F71197C9F7089590
:00000001FF
