:0E0000000C942A000C9400000C9400000C9448
:10000E0000000C9400000C9400000C9400000C9462
:10001E0000000C9400000C9400000C9400000C9452
:10002E0000000C9400000C9400000C9400000C9442
:10003E0000000C9400000C9400000C9400000C9432
:10004E0000000C940000F894EE27ECBBF1E0FBBF2F
:10005E00EBBFE5BF8DE0A2E0BB27ED938A95E9F7F4
:10006E0080E094E0A0E6ED930197E9F7EFE5EDBFB0
:10007E00E4E0EEBFC0E6D1E00C944500D998C498F8
:10008E00D19ABC9AA99A929AA1988A98999906C0DF
:10009E00D99A999B02C0D99801C0F8CF829906C00F
:1000AE00C49A829B02C0C49801C0F8CFEFCFFFCF95
:00000001FF
